{
  "_format": "hh-sol-artifact-1",
  "contractName": "DrearlNFT",
  "sourceName": "contracts/DrearlNFT.sol",
  "abi": [
    {
      "inputs": [],
      "stateMutability": "nonpayable",
      "type": "constructor"
    },
    {
      "inputs": [
        {
          "internalType": "address",
          "name": "sender",
          "type": "address"
        },
        {
          "internalType": "uint256",
          "name": "balance",
          "type": "uint256"
        },
        {
          "internalType": "uint256",
          "name": "needed",
          "type": "uint256"
        },
        {
          "internalType": "uint256",
          "name": "tokenId",
          "type": "uint256"
        }
      ],
      "name": "ERC1155InsufficientBalance",
      "type": "error"
    },
    {
      "inputs": [
        {
          "internalType": "address",
          "name": "approver",
          "type": "address"
        }
      ],
      "name": "ERC1155InvalidApprover",
      "type": "error"
    },
    {
      "inputs": [
        {
          "internalType": "uint256",
          "name": "idsLength",
          "type": "uint256"
        },
        {
          "internalType": "uint256",
          "name": "valuesLength",
          "type": "uint256"
        }
      ],
      "name": "ERC1155InvalidArrayLength",
      "type": "error"
    },
    {
      "inputs": [
        {
          "internalType": "address",
          "name": "operator",
          "type": "address"
        }
      ],
      "name": "ERC1155InvalidOperator",
      "type": "error"
    },
    {
      "inputs": [
        {
          "internalType": "address",
          "name": "receiver",
          "type": "address"
        }
      ],
      "name": "ERC1155InvalidReceiver",
      "type": "error"
    },
    {
      "inputs": [
        {
          "internalType": "address",
          "name": "sender",
          "type": "address"
        }
      ],
      "name": "ERC1155InvalidSender",
      "type": "error"
    },
    {
      "inputs": [
        {
          "internalType": "address",
          "name": "operator",
          "type": "address"
        },
        {
          "internalType": "address",
          "name": "owner",
          "type": "address"
        }
      ],
      "name": "ERC1155MissingApprovalForAll",
      "type": "error"
    },
    {
      "inputs": [
        {
          "internalType": "address",
          "name": "owner",
          "type": "address"
        }
      ],
      "name": "OwnableInvalidOwner",
      "type": "error"
    },
    {
      "inputs": [
        {
          "internalType": "address",
          "name": "account",
          "type": "address"
        }
      ],
      "name": "OwnableUnauthorizedAccount",
      "type": "error"
    },
    {
      "anonymous": false,
      "inputs": [
        {
          "indexed": true,
          "internalType": "address",
          "name": "account",
          "type": "address"
        },
        {
          "indexed": true,
          "internalType": "address",
          "name": "operator",
          "type": "address"
        },
        {
          "indexed": false,
          "internalType": "bool",
          "name": "approved",
          "type": "bool"
        }
      ],
      "name": "ApprovalForAll",
      "type": "event"
    },
    {
      "anonymous": false,
      "inputs": [
        {
          "indexed": true,
          "internalType": "address",
          "name": "previousOwner",
          "type": "address"
        },
        {
          "indexed": true,
          "internalType": "address",
          "name": "newOwner",
          "type": "address"
        }
      ],
      "name": "OwnershipTransferred",
      "type": "event"
    },
    {
      "anonymous": false,
      "inputs": [
        {
          "indexed": true,
          "internalType": "address",
          "name": "operator",
          "type": "address"
        },
        {
          "indexed": true,
          "internalType": "address",
          "name": "from",
          "type": "address"
        },
        {
          "indexed": true,
          "internalType": "address",
          "name": "to",
          "type": "address"
        },
        {
          "indexed": false,
          "internalType": "uint256[]",
          "name": "ids",
          "type": "uint256[]"
        },
        {
          "indexed": false,
          "internalType": "uint256[]",
          "name": "values",
          "type": "uint256[]"
        }
      ],
      "name": "TransferBatch",
      "type": "event"
    },
    {
      "anonymous": false,
      "inputs": [
        {
          "indexed": true,
          "internalType": "address",
          "name": "operator",
          "type": "address"
        },
        {
          "indexed": true,
          "internalType": "address",
          "name": "from",
          "type": "address"
        },
        {
          "indexed": true,
          "internalType": "address",
          "name": "to",
          "type": "address"
        },
        {
          "indexed": false,
          "internalType": "uint256",
          "name": "id",
          "type": "uint256"
        },
        {
          "indexed": false,
          "internalType": "uint256",
          "name": "value",
          "type": "uint256"
        }
      ],
      "name": "TransferSingle",
      "type": "event"
    },
    {
      "anonymous": false,
      "inputs": [
        {
          "indexed": false,
          "internalType": "string",
          "name": "value",
          "type": "string"
        },
        {
          "indexed": true,
          "internalType": "uint256",
          "name": "id",
          "type": "uint256"
        }
      ],
      "name": "URI",
      "type": "event"
    },
    {
      "inputs": [
        {
          "internalType": "address",
          "name": "account",
          "type": "address"
        },
        {
          "internalType": "uint256",
          "name": "id",
          "type": "uint256"
        }
      ],
      "name": "balanceOf",
      "outputs": [
        {
          "internalType": "uint256",
          "name": "",
          "type": "uint256"
        }
      ],
      "stateMutability": "view",
      "type": "function"
    },
    {
      "inputs": [
        {
          "internalType": "address[]",
          "name": "accounts",
          "type": "address[]"
        },
        {
          "internalType": "uint256[]",
          "name": "ids",
          "type": "uint256[]"
        }
      ],
      "name": "balanceOfBatch",
      "outputs": [
        {
          "internalType": "uint256[]",
          "name": "",
          "type": "uint256[]"
        }
      ],
      "stateMutability": "view",
      "type": "function"
    },
    {
      "inputs": [
        {
          "internalType": "address",
          "name": "account",
          "type": "address"
        },
        {
          "internalType": "address",
          "name": "operator",
          "type": "address"
        }
      ],
      "name": "isApprovedForAll",
      "outputs": [
        {
          "internalType": "bool",
          "name": "",
          "type": "bool"
        }
      ],
      "stateMutability": "view",
      "type": "function"
    },
    {
      "inputs": [
        {
          "internalType": "address",
          "name": "account",
          "type": "address"
        },
        {
          "internalType": "uint256",
          "name": "id",
          "type": "uint256"
        },
        {
          "internalType": "uint256",
          "name": "amount",
          "type": "uint256"
        },
        {
          "internalType": "bytes",
          "name": "data",
          "type": "bytes"
        }
      ],
      "name": "mint",
      "outputs": [],
      "stateMutability": "nonpayable",
      "type": "function"
    },
    {
      "inputs": [
        {
          "internalType": "address",
          "name": "to",
          "type": "address"
        },
        {
          "internalType": "uint256[]",
          "name": "ids",
          "type": "uint256[]"
        },
        {
          "internalType": "uint256[]",
          "name": "amounts",
          "type": "uint256[]"
        },
        {
          "internalType": "bytes",
          "name": "data",
          "type": "bytes"
        }
      ],
      "name": "mintBatch",
      "outputs": [],
      "stateMutability": "nonpayable",
      "type": "function"
    },
    {
      "inputs": [],
      "name": "owner",
      "outputs": [
        {
          "internalType": "address",
          "name": "",
          "type": "address"
        }
      ],
      "stateMutability": "view",
      "type": "function"
    },
    {
      "inputs": [],
      "name": "renounceOwnership",
      "outputs": [],
      "stateMutability": "nonpayable",
      "type": "function"
    },
    {
      "inputs": [
        {
          "internalType": "address",
          "name": "from",
          "type": "address"
        },
        {
          "internalType": "address",
          "name": "to",
          "type": "address"
        },
        {
          "internalType": "uint256[]",
          "name": "ids",
          "type": "uint256[]"
        },
        {
          "internalType": "uint256[]",
          "name": "values",
          "type": "uint256[]"
        },
        {
          "internalType": "bytes",
          "name": "data",
          "type": "bytes"
        }
      ],
      "name": "safeBatchTransferFrom",
      "outputs": [],
      "stateMutability": "nonpayable",
      "type": "function"
    },
    {
      "inputs": [
        {
          "internalType": "address",
          "name": "from",
          "type": "address"
        },
        {
          "internalType": "address",
          "name": "to",
          "type": "address"
        },
        {
          "internalType": "uint256",
          "name": "id",
          "type": "uint256"
        },
        {
          "internalType": "uint256",
          "name": "value",
          "type": "uint256"
        },
        {
          "internalType": "bytes",
          "name": "data",
          "type": "bytes"
        }
      ],
      "name": "safeTransferFrom",
      "outputs": [],
      "stateMutability": "nonpayable",
      "type": "function"
    },
    {
      "inputs": [
        {
          "internalType": "address",
          "name": "operator",
          "type": "address"
        },
        {
          "internalType": "bool",
          "name": "approved",
          "type": "bool"
        }
      ],
      "name": "setApprovalForAll",
      "outputs": [],
      "stateMutability": "nonpayable",
      "type": "function"
    },
    {
      "inputs": [
        {
          "internalType": "string",
          "name": "newuri",
          "type": "string"
        }
      ],
      "name": "setURI",
      "outputs": [],
      "stateMutability": "nonpayable",
      "type": "function"
    },
    {
      "inputs": [
        {
          "internalType": "bytes4",
          "name": "interfaceId",
          "type": "bytes4"
        }
      ],
      "name": "supportsInterface",
      "outputs": [
        {
          "internalType": "bool",
          "name": "",
          "type": "bool"
        }
      ],
      "stateMutability": "view",
      "type": "function"
    },
    {
      "inputs": [
        {
          "internalType": "address",
          "name": "newOwner",
          "type": "address"
        }
      ],
      "name": "transferOwnership",
      "outputs": [],
      "stateMutability": "nonpayable",
      "type": "function"
    },
    {
      "inputs": [
        {
          "internalType": "uint256",
          "name": "",
          "type": "uint256"
        }
      ],
      "name": "uri",
      "outputs": [
        {
          "internalType": "string",
          "name": "",
          "type": "string"
        }
      ],
      "stateMutability": "view",
      "type": "function"
    }
  ],
  "bytecode": "0x608060405234801561001057600080fd5b50604080516020810190915260008152339061002b81610069565b506001600160a01b03811661005a57604051631e4fbdf760e01b81526000600482015260240160405180910390fd5b61006381610079565b50610228565b6002610075828261016a565b5050565b600380546001600160a01b038381166001600160a01b0319831681179093556040519116919082907f8be0079c531659141344cd1fd0a4f28419497f9722a3daafe3b4186f6b6457e090600090a35050565b634e487b7160e01b600052604160045260246000fd5b600181811c908216806100f557607f821691505b60208210810361011557634e487b7160e01b600052602260045260246000fd5b50919050565b601f82111561016557806000526020600020601f840160051c810160208510156101425750805b601f840160051c820191505b81811015610162576000815560010161014e565b50505b505050565b81516001600160401b03811115610183576101836100cb565b6101978161019184546100e1565b8461011b565b6020601f8211600181146101cb57600083156101b35750848201515b600019600385901b1c1916600184901b178455610162565b600084815260208120601f198516915b828110156101fb57878501518255602094850194600190920191016101db565b50848210156102195786840151600019600387901b60f8161c191681555b50505050600190811b01905550565b6115e9806102376000396000f3fe608060405234801561001057600080fd5b50600436106100e95760003560e01c8063715018a61161008c578063a22cb46511610066578063a22cb465146101e8578063e985e9c5146101fb578063f242432a14610237578063f2fde38b1461024a57600080fd5b8063715018a6146101b2578063731133e9146101ba5780638da5cb5b146101cd57600080fd5b80630e89341c116100c85780630e89341c1461014c5780631f7fdffa1461016c5780632eb2c2d61461017f5780634e1273f41461019257600080fd5b8062fdd58e146100ee57806301ffc9a71461011457806302fe530514610137575b600080fd5b6101016100fc366004610d27565b61025d565b6040519081526020015b60405180910390f35b610127610122366004610d67565b610285565b604051901515815260200161010b565b61014a610145366004610e2e565b6102d5565b005b61015f61015a366004610e7f565b6102e9565b60405161010b9190610ede565b61014a61017a366004610fa2565b61037d565b61014a61018d366004611047565b610397565b6101a56101a03660046110fd565b610422565b60405161010b9190611202565b61014a6104ef565b61014a6101c8366004611215565b610503565b6003546040516001600160a01b03909116815260200161010b565b61014a6101f636600461125e565b610517565b61012761020936600461129a565b6001600160a01b03918216600090815260016020908152604080832093909416825291909152205460ff1690565b61014a6102453660046112cd565b610526565b61014a610258366004611326565b6105a4565b6000818152602081815260408083206001600160a01b03861684529091529020545b92915050565b60006001600160e01b03198216636cdb3d1360e11b14806102b657506001600160e01b031982166303a24d0760e21b145b8061027f57506301ffc9a760e01b6001600160e01b031983161461027f565b6102dd6105df565b6102e68161060c565b50565b6060600280546102f890611341565b80601f016020809104026020016040519081016040528092919081815260200182805461032490611341565b80156103715780601f1061034657610100808354040283529160200191610371565b820191906000526020600020905b81548152906001019060200180831161035457829003601f168201915b50505050509050919050565b6103856105df565b61039184848484610618565b50505050565b336001600160a01b03861681148015906103d757506001600160a01b0380871660009081526001602090815260408083209385168352929052205460ff16155b1561040d5760405163711bec9160e11b81526001600160a01b038083166004830152871660248201526044015b60405180910390fd5b61041a8686868686610650565b505050505050565b606081518351146104535781518351604051635b05999160e01b815260048101929092526024820152604401610404565b6000835167ffffffffffffffff81111561046f5761046f610d8b565b604051908082528060200260200182016040528015610498578160200160208202803683370190505b50905060005b84518110156104e7576020808202860101516104c29060208084028701015161025d565b8282815181106104d4576104d461137b565b602090810291909101015260010161049e565b509392505050565b6104f76105df565b61050160006106b7565b565b61050b6105df565b61039184848484610716565b610522338383610773565b5050565b336001600160a01b038616811480159061056657506001600160a01b0380871660009081526001602090815260408083209385168352929052205460ff16155b156105975760405163711bec9160e11b81526001600160a01b03808316600483015287166024820152604401610404565b61041a8686868686610809565b6105ac6105df565b6001600160a01b0381166105d657604051631e4fbdf760e01b815260006004820152602401610404565b6102e6816106b7565b6003546001600160a01b031633146105015760405163118cdaa760e01b8152336004820152602401610404565b600261052282826113dd565b6001600160a01b03841661064257604051632bfa23e760e11b815260006004820152602401610404565b610391600085858585610897565b6001600160a01b03841661067a57604051632bfa23e760e11b815260006004820152602401610404565b6001600160a01b0385166106a357604051626a0d4560e21b815260006004820152602401610404565b6106b08585858585610897565b5050505050565b600380546001600160a01b0383811673ffffffffffffffffffffffffffffffffffffffff19831681179093556040519116919082907f8be0079c531659141344cd1fd0a4f28419497f9722a3daafe3b4186f6b6457e090600090a35050565b6001600160a01b03841661074057604051632bfa23e760e11b815260006004820152602401610404565b6040805160018082526020820186905281830190815260608201859052608082019092529061041a600087848487610897565b6001600160a01b03821661079c5760405162ced3e160e81b815260006004820152602401610404565b6001600160a01b03838116600081815260016020908152604080832094871680845294825291829020805460ff191686151590811790915591519182527f17307eab39ab6107e8899845ad3d59bd9653f200f220920489ca2b5937696c31910160405180910390a3505050565b6001600160a01b03841661083357604051632bfa23e760e11b815260006004820152602401610404565b6001600160a01b03851661085c57604051626a0d4560e21b815260006004820152602401610404565b6040805160018082526020820186905281830190815260608201859052608082019092529061088e8787848487610897565b50505050505050565b6108a3858585856108ea565b6001600160a01b038416156106b057825133906001036108dc57602084810151908401516108d5838989858589610afe565b505061041a565b61041a818787878787610c22565b80518251146109195781518151604051635b05999160e01b815260048101929092526024820152604401610404565b3360005b8351811015610a1f576020818102858101820151908501909101516001600160a01b038816156109d0576000828152602081815260408083206001600160a01b038c168452909152902054818110156109a9576040516303dee4c560e01b81526001600160a01b038a166004820152602481018290526044810183905260648101849052608401610404565b6000838152602081815260408083206001600160a01b038d16845290915290209082900390555b6001600160a01b03871615610a15576000828152602081815260408083206001600160a01b038b16845290915281208054839290610a0f90849061149c565b90915550505b505060010161091d565b508251600103610aa05760208301516000906020840151909150856001600160a01b0316876001600160a01b0316846001600160a01b03167fc3d58168c5ae7397731d063d5bbf3d657854427343f4c083240f7aacaa2d0f628585604051610a91929190918252602082015260400190565b60405180910390a450506106b0565b836001600160a01b0316856001600160a01b0316826001600160a01b03167f4a39dc06d4c0dbc64b70af90fd698a233a518aa5d07e595d983b8c0526c8f7fb8686604051610aef9291906114bd565b60405180910390a45050505050565b6001600160a01b0384163b1561041a5760405163f23a6e6160e01b81526001600160a01b0385169063f23a6e6190610b4290899089908890889088906004016114eb565b6020604051808303816000875af1925050508015610b7d575060408051601f3d908101601f19168201909252610b7a91810190611533565b60015b610be6573d808015610bab576040519150601f19603f3d011682016040523d82523d6000602084013e610bb0565b606091505b508051600003610bde57604051632bfa23e760e11b81526001600160a01b0386166004820152602401610404565b805160208201fd5b6001600160e01b0319811663f23a6e6160e01b1461088e57604051632bfa23e760e11b81526001600160a01b0386166004820152602401610404565b6001600160a01b0384163b1561041a5760405163bc197c8160e01b81526001600160a01b0385169063bc197c8190610c669089908990889088908890600401611550565b6020604051808303816000875af1925050508015610ca1575060408051601f3d908101601f19168201909252610c9e91810190611533565b60015b610ccf573d808015610bab576040519150601f19603f3d011682016040523d82523d6000602084013e610bb0565b6001600160e01b0319811663bc197c8160e01b1461088e57604051632bfa23e760e11b81526001600160a01b0386166004820152602401610404565b80356001600160a01b0381168114610d2257600080fd5b919050565b60008060408385031215610d3a57600080fd5b610d4383610d0b565b946020939093013593505050565b6001600160e01b0319811681146102e657600080fd5b600060208284031215610d7957600080fd5b8135610d8481610d51565b9392505050565b634e487b7160e01b600052604160045260246000fd5b604051601f8201601f1916810167ffffffffffffffff81118282101715610dca57610dca610d8b565b604052919050565b60008067ffffffffffffffff841115610ded57610ded610d8b565b50601f8301601f1916602001610e0281610da1565b915050828152838383011115610e1757600080fd5b828260208301376000602084830101529392505050565b600060208284031215610e4057600080fd5b813567ffffffffffffffff811115610e5757600080fd5b8201601f81018413610e6857600080fd5b610e7784823560208401610dd2565b949350505050565b600060208284031215610e9157600080fd5b5035919050565b6000815180845260005b81811015610ebe57602081850181015186830182015201610ea2565b506000602082860101526020601f19601f83011685010191505092915050565b602081526000610d846020830184610e98565b600067ffffffffffffffff821115610f0b57610f0b610d8b565b5060051b60200190565b600082601f830112610f2657600080fd5b8135610f39610f3482610ef1565b610da1565b8082825260208201915060208360051b860101925085831115610f5b57600080fd5b602085015b83811015610f78578035835260209283019201610f60565b5095945050505050565b600082601f830112610f9357600080fd5b610d8483833560208501610dd2565b60008060008060808587031215610fb857600080fd5b610fc185610d0b565b9350602085013567ffffffffffffffff811115610fdd57600080fd5b610fe987828801610f15565b935050604085013567ffffffffffffffff81111561100657600080fd5b61101287828801610f15565b925050606085013567ffffffffffffffff81111561102f57600080fd5b61103b87828801610f82565b91505092959194509250565b600080600080600060a0868803121561105f57600080fd5b61106886610d0b565b945061107660208701610d0b565b9350604086013567ffffffffffffffff81111561109257600080fd5b61109e88828901610f15565b935050606086013567ffffffffffffffff8111156110bb57600080fd5b6110c788828901610f15565b925050608086013567ffffffffffffffff8111156110e457600080fd5b6110f088828901610f82565b9150509295509295909350565b6000806040838503121561111057600080fd5b823567ffffffffffffffff81111561112757600080fd5b8301601f8101851361113857600080fd5b8035611146610f3482610ef1565b8082825260208201915060208360051b85010192508783111561116857600080fd5b6020840193505b828410156111915761118084610d0b565b82526020938401939091019061116f565b9450505050602083013567ffffffffffffffff8111156111b057600080fd5b6111bc85828601610f15565b9150509250929050565b600081518084526020840193506020830160005b828110156111f85781518652602095860195909101906001016111da565b5093949350505050565b602081526000610d8460208301846111c6565b6000806000806080858703121561122b57600080fd5b61123485610d0b565b93506020850135925060408501359150606085013567ffffffffffffffff81111561102f57600080fd5b6000806040838503121561127157600080fd5b61127a83610d0b565b91506020830135801515811461128f57600080fd5b809150509250929050565b600080604083850312156112ad57600080fd5b6112b683610d0b565b91506112c460208401610d0b565b90509250929050565b600080600080600060a086880312156112e557600080fd5b6112ee86610d0b565b94506112fc60208701610d0b565b93506040860135925060608601359150608086013567ffffffffffffffff8111156110e457600080fd5b60006020828403121561133857600080fd5b610d8482610d0b565b600181811c9082168061135557607f821691505b60208210810361137557634e487b7160e01b600052602260045260246000fd5b50919050565b634e487b7160e01b600052603260045260246000fd5b601f8211156113d857806000526020600020601f840160051c810160208510156113b85750805b601f840160051c820191505b818110156106b057600081556001016113c4565b505050565b815167ffffffffffffffff8111156113f7576113f7610d8b565b61140b816114058454611341565b84611391565b6020601f82116001811461143f57600083156114275750848201515b600019600385901b1c1916600184901b1784556106b0565b600084815260208120601f198516915b8281101561146f578785015182556020948501946001909201910161144f565b508482101561148d5786840151600019600387901b60f8161c191681555b50505050600190811b01905550565b8082018082111561027f57634e487b7160e01b600052601160045260246000fd5b6040815260006114d060408301856111c6565b82810360208401526114e281856111c6565b95945050505050565b6001600160a01b03861681526001600160a01b038516602082015283604082015282606082015260a06080820152600061152860a0830184610e98565b979650505050505050565b60006020828403121561154557600080fd5b8151610d8481610d51565b6001600160a01b03861681526001600160a01b038516602082015260a06040820152600061158160a08301866111c6565b828103606084015261159381866111c6565b905082810360808401526115a78185610e98565b9897505050505050505056fea2646970667358221220ed11e5a726d47167b3189b3f01e3b25abacdd22b2233035ce14ceede9630d5bb64736f6c634300081b0033",
  "linkReferences": {},
  "deployedLinkReferences": {}
}