{
  "_format": "hh-sol-artifact-1",
  "contractName": "DrearlToken",
  "sourceName": "contracts/DrearlToken.sol",
  "abi": [
    {
      "inputs": [],
      "stateMutability": "nonpayable",
      "type": "constructor"
    },
    {
      "inputs": [
        {
          "internalType": "address",
          "name": "spender",
          "type": "address"
        },
        {
          "internalType": "uint256",
          "name": "allowance",
          "type": "uint256"
        },
        {
          "internalType": "uint256",
          "name": "needed",
          "type": "uint256"
        }
      ],
      "name": "ERC20InsufficientAllowance",
      "type": "error"
    },
    {
      "inputs": [
        {
          "internalType": "address",
          "name": "sender",
          "type": "address"
        },
        {
          "internalType": "uint256",
          "name": "balance",
          "type": "uint256"
        },
        {
          "internalType": "uint256",
          "name": "needed",
          "type": "uint256"
        }
      ],
      "name": "ERC20InsufficientBalance",
      "type": "error"
    },
    {
      "inputs": [
        {
          "internalType": "address",
          "name": "approver",
          "type": "address"
        }
      ],
      "name": "ERC20InvalidApprover",
      "type": "error"
    },
    {
      "inputs": [
        {
          "internalType": "address",
          "name": "receiver",
          "type": "address"
        }
      ],
      "name": "ERC20InvalidReceiver",
      "type": "error"
    },
    {
      "inputs": [
        {
          "internalType": "address",
          "name": "sender",
          "type": "address"
        }
      ],
      "name": "ERC20InvalidSender",
      "type": "error"
    },
    {
      "inputs": [
        {
          "internalType": "address",
          "name": "spender",
          "type": "address"
        }
      ],
      "name": "ERC20InvalidSpender",
      "type": "error"
    },
    {
      "anonymous": false,
      "inputs": [
        {
          "indexed": true,
          "internalType": "address",
          "name": "owner",
          "type": "address"
        },
        {
          "indexed": true,
          "internalType": "address",
          "name": "spender",
          "type": "address"
        },
        {
          "indexed": false,
          "internalType": "uint256",
          "name": "value",
          "type": "uint256"
        }
      ],
      "name": "Approval",
      "type": "event"
    },
    {
      "anonymous": false,
      "inputs": [
        {
          "indexed": true,
          "internalType": "address",
          "name": "from",
          "type": "address"
        },
        {
          "indexed": true,
          "internalType": "address",
          "name": "to",
          "type": "address"
        },
        {
          "indexed": false,
          "internalType": "uint256",
          "name": "value",
          "type": "uint256"
        }
      ],
      "name": "Transfer",
      "type": "event"
    },
    {
      "inputs": [
        {
          "internalType": "address",
          "name": "owner",
          "type": "address"
        },
        {
          "internalType": "address",
          "name": "spender",
          "type": "address"
        }
      ],
      "name": "allowance",
      "outputs": [
        {
          "internalType": "uint256",
          "name": "",
          "type": "uint256"
        }
      ],
      "stateMutability": "view",
      "type": "function"
    },
    {
      "inputs": [
        {
          "internalType": "address",
          "name": "spender",
          "type": "address"
        },
        {
          "internalType": "uint256",
          "name": "value",
          "type": "uint256"
        }
      ],
      "name": "approve",
      "outputs": [
        {
          "internalType": "bool",
          "name": "",
          "type": "bool"
        }
      ],
      "stateMutability": "nonpayable",
      "type": "function"
    },
    {
      "inputs": [
        {
          "internalType": "address",
          "name": "account",
          "type": "address"
        }
      ],
      "name": "balanceOf",
      "outputs": [
        {
          "internalType": "uint256",
          "name": "",
          "type": "uint256"
        }
      ],
      "stateMutability": "view",
      "type": "function"
    },
    {
      "inputs": [],
      "name": "decimals",
      "outputs": [
        {
          "internalType": "uint8",
          "name": "",
          "type": "uint8"
        }
      ],
      "stateMutability": "view",
      "type": "function"
    },
    {
      "inputs": [
        {
          "internalType": "uint256",
          "name": "_amount",
          "type": "uint256"
        }
      ],
      "name": "mint",
      "outputs": [],
      "stateMutability": "nonpayable",
      "type": "function"
    },
    {
      "inputs": [],
      "name": "name",
      "outputs": [
        {
          "internalType": "string",
          "name": "",
          "type": "string"
        }
      ],
      "stateMutability": "view",
      "type": "function"
    },
    {
      "inputs": [],
      "name": "owner",
      "outputs": [
        {
          "internalType": "address",
          "name": "",
          "type": "address"
        }
      ],
      "stateMutability": "view",
      "type": "function"
    },
    {
      "inputs": [],
      "name": "symbol",
      "outputs": [
        {
          "internalType": "string",
          "name": "",
          "type": "string"
        }
      ],
      "stateMutability": "view",
      "type": "function"
    },
    {
      "inputs": [],
      "name": "totalSupply",
      "outputs": [
        {
          "internalType": "uint256",
          "name": "",
          "type": "uint256"
        }
      ],
      "stateMutability": "view",
      "type": "function"
    },
    {
      "inputs": [
        {
          "internalType": "address",
          "name": "to",
          "type": "address"
        },
        {
          "internalType": "uint256",
          "name": "value",
          "type": "uint256"
        }
      ],
      "name": "transfer",
      "outputs": [
        {
          "internalType": "bool",
          "name": "",
          "type": "bool"
        }
      ],
      "stateMutability": "nonpayable",
      "type": "function"
    },
    {
      "inputs": [
        {
          "internalType": "address",
          "name": "from",
          "type": "address"
        },
        {
          "internalType": "address",
          "name": "to",
          "type": "address"
        },
        {
          "internalType": "uint256",
          "name": "value",
          "type": "uint256"
        }
      ],
      "name": "transferFrom",
      "outputs": [
        {
          "internalType": "bool",
          "name": "",
          "type": "bool"
        }
      ],
      "stateMutability": "nonpayable",
      "type": "function"
    }
  ],
  "bytecode": "0x608060405234801561001057600080fd5b506040518060400160405280600c81526020016b223932b0b936102a37b5b2b760a11b8152506040518060400160405280600381526020016222262960e91b815250816003908161006191906102a7565b50600461006e82826102a7565b5050600580546001600160a01b0319163390811790915561009a915069152d02c7e14af680000061009f565b61038c565b6001600160a01b0382166100ce5760405163ec442f0560e01b8152600060048201526024015b60405180910390fd5b6100da600083836100de565b5050565b6001600160a01b0383166101095780600260008282546100fe9190610365565b9091555061017b9050565b6001600160a01b0383166000908152602081905260409020548181101561015c5760405163391434e360e21b81526001600160a01b038516600482015260248101829052604481018390526064016100c5565b6001600160a01b03841660009081526020819052604090209082900390555b6001600160a01b038216610197576002805482900390556101b6565b6001600160a01b03821660009081526020819052604090208054820190555b816001600160a01b0316836001600160a01b03167fddf252ad1be2c89b69c2b068fc378daa952ba7f163c4a11628f55a4df523b3ef836040516101fb91815260200190565b60405180910390a3505050565b634e487b7160e01b600052604160045260246000fd5b600181811c9082168061023257607f821691505b60208210810361025257634e487b7160e01b600052602260045260246000fd5b50919050565b601f8211156102a257806000526020600020601f840160051c8101602085101561027f5750805b601f840160051c820191505b8181101561029f576000815560010161028b565b50505b505050565b81516001600160401b038111156102c0576102c0610208565b6102d4816102ce845461021e565b84610258565b6020601f82116001811461030857600083156102f05750848201515b600019600385901b1c1916600184901b17845561029f565b600084815260208120601f198516915b828110156103385787850151825560209485019460019092019101610318565b50848210156103565786840151600019600387901b60f8161c191681555b50505050600190811b01905550565b8082018082111561038657634e487b7160e01b600052601160045260246000fd5b92915050565b6108728061039b6000396000f3fe608060405234801561001057600080fd5b50600436106100b95760003560e01c806370a0823111610081578063a0712d681161005b578063a0712d681461018f578063a9059cbb146101a4578063dd62ed3e146101b757600080fd5b806370a08231146101335780638da5cb5b1461015c57806395d89b411461018757600080fd5b806306fdde03146100be578063095ea7b3146100dc57806318160ddd146100ff57806323b872dd14610111578063313ce56714610124575b600080fd5b6100c66101f0565b6040516100d39190610683565b60405180910390f35b6100ef6100ea3660046106ed565b610282565b60405190151581526020016100d3565b6002545b6040519081526020016100d3565b6100ef61011f366004610717565b61029c565b604051601281526020016100d3565b610103610141366004610754565b6001600160a01b031660009081526020819052604090205490565b60055461016f906001600160a01b031681565b6040516001600160a01b0390911681526020016100d3565b6100c66102c0565b6101a261019d366004610776565b6102cf565b005b6100ef6101b23660046106ed565b61034c565b6101036101c536600461078f565b6001600160a01b03918216600090815260016020908152604080832093909416825291909152205490565b6060600380546101ff906107c2565b80601f016020809104026020016040519081016040528092919081815260200182805461022b906107c2565b80156102785780601f1061024d57610100808354040283529160200191610278565b820191906000526020600020905b81548152906001019060200180831161025b57829003601f168201915b5050505050905090565b60003361029081858561035a565b60019150505b92915050565b6000336102aa85828561036c565b6102b58585856103eb565b506001949350505050565b6060600480546101ff906107c2565b6005546001600160a01b0316331461032e5760405162461bcd60e51b815260206004820152601160248201527f796f7520617265206e6f74206f776e657200000000000000000000000000000060448201526064015b60405180910390fd5b6103493361034483670de0b6b3a7640000610812565b61044a565b50565b6000336102908185856103eb565b6103678383836001610484565b505050565b6001600160a01b038381166000908152600160209081526040808320938616835292905220546000198110156103e557818110156103d657604051637dc7a0d960e11b81526001600160a01b03841660048201526024810182905260448101839052606401610325565b6103e584848484036000610484565b50505050565b6001600160a01b03831661041557604051634b637e8f60e11b815260006004820152602401610325565b6001600160a01b03821661043f5760405163ec442f0560e01b815260006004820152602401610325565b610367838383610559565b6001600160a01b0382166104745760405163ec442f0560e01b815260006004820152602401610325565b61048060008383610559565b5050565b6001600160a01b0384166104ae5760405163e602df0560e01b815260006004820152602401610325565b6001600160a01b0383166104d857604051634a1406b160e11b815260006004820152602401610325565b6001600160a01b03808516600090815260016020908152604080832093871683529290522082905580156103e557826001600160a01b0316846001600160a01b03167f8c5be1e5ebec7d5bd14f71427d1e84f3dd0314c0f7b2291e5b200ac8c7c3b9258460405161054b91815260200190565b60405180910390a350505050565b6001600160a01b0383166105845780600260008282546105799190610829565b909155506105f69050565b6001600160a01b038316600090815260208190526040902054818110156105d75760405163391434e360e21b81526001600160a01b03851660048201526024810182905260448101839052606401610325565b6001600160a01b03841660009081526020819052604090209082900390555b6001600160a01b03821661061257600280548290039055610631565b6001600160a01b03821660009081526020819052604090208054820190555b816001600160a01b0316836001600160a01b03167fddf252ad1be2c89b69c2b068fc378daa952ba7f163c4a11628f55a4df523b3ef8360405161067691815260200190565b60405180910390a3505050565b602081526000825180602084015260005b818110156106b15760208186018101516040868401015201610694565b506000604082850101526040601f19601f83011684010191505092915050565b80356001600160a01b03811681146106e857600080fd5b919050565b6000806040838503121561070057600080fd5b610709836106d1565b946020939093013593505050565b60008060006060848603121561072c57600080fd5b610735846106d1565b9250610743602085016106d1565b929592945050506040919091013590565b60006020828403121561076657600080fd5b61076f826106d1565b9392505050565b60006020828403121561078857600080fd5b5035919050565b600080604083850312156107a257600080fd5b6107ab836106d1565b91506107b9602084016106d1565b90509250929050565b600181811c908216806107d657607f821691505b6020821081036107f657634e487b7160e01b600052602260045260246000fd5b50919050565b634e487b7160e01b600052601160045260246000fd5b8082028115828204841417610296576102966107fc565b80820180821115610296576102966107fc56fea2646970667358221220b2105ea7d4e0a48e9002400b4f6a32788e6945a4e3fecb5f04c518fb9e43c5cb64736f6c634300081b0033",
  "linkReferences": {},
  "deployedLinkReferences": {}
}