{
  "_format": "hh-sol-artifact-1",
  "contractName": "Drearl",
  "sourceName": "contracts/DrearlContract.sol",
  "abi": [
    {
      "inputs": [
        {
          "internalType": "address",
          "name": "_tokenAddress",
          "type": "address"
        },
        {
          "internalType": "address",
          "name": "_nftAddress",
          "type": "address"
        }
      ],
      "stateMutability": "nonpayable",
      "type": "constructor"
    },
    {
      "inputs": [],
      "name": "InsufficientAllowanceToTransferDelarTokens",
      "type": "error"
    },
    {
      "inputs": [],
      "name": "InsufficientDelarTokens",
      "type": "error"
    },
    {
      "inputs": [],
      "name": "InvalidLandLocationDetails",
      "type": "error"
    },
    {
      "inputs": [],
      "name": "InvalidNumberOfPlots",
      "type": "error"
    },
    {
      "inputs": [],
      "name": "InvalidTitleNumber",
      "type": "error"
    },
    {
      "inputs": [],
      "name": "LandIsNotVerified",
      "type": "error"
    },
    {
      "inputs": [],
      "name": "PropertyNotVerified",
      "type": "error"
    },
    {
      "inputs": [],
      "name": "TitleExistAlready",
      "type": "error"
    },
    {
      "anonymous": false,
      "inputs": [
        {
          "indexed": true,
          "internalType": "address",
          "name": "owner",
          "type": "address"
        },
        {
          "indexed": true,
          "internalType": "uint256",
          "name": "landIndex",
          "type": "uint256"
        },
        {
          "indexed": false,
          "internalType": "string",
          "name": "state",
          "type": "string"
        },
        {
          "indexed": false,
          "internalType": "string",
          "name": "lga",
          "type": "string"
        },
        {
          "indexed": false,
          "internalType": "string",
          "name": "city",
          "type": "string"
        }
      ],
      "name": "LandRegistered",
      "type": "event"
    },
    {
      "anonymous": false,
      "inputs": [
        {
          "indexed": true,
          "internalType": "address",
          "name": "from",
          "type": "address"
        },
        {
          "indexed": true,
          "internalType": "address",
          "name": "to",
          "type": "address"
        },
        {
          "indexed": false,
          "internalType": "uint256",
          "name": "amount",
          "type": "uint256"
        }
      ],
      "name": "LandSold",
      "type": "event"
    },
    {
      "anonymous": false,
      "inputs": [
        {
          "indexed": true,
          "internalType": "address",
          "name": "owner",
          "type": "address"
        },
        {
          "indexed": true,
          "internalType": "uint256",
          "name": "propertyIndex",
          "type": "uint256"
        }
      ],
      "name": "PropertyRegistered",
      "type": "event"
    },
    {
      "anonymous": false,
      "inputs": [
        {
          "indexed": true,
          "internalType": "address",
          "name": "from",
          "type": "address"
        },
        {
          "indexed": true,
          "internalType": "address",
          "name": "to",
          "type": "address"
        },
        {
          "indexed": false,
          "internalType": "uint256",
          "name": "amount",
          "type": "uint256"
        }
      ],
      "name": "PropertySold",
      "type": "event"
    },
    {
      "inputs": [
        {
          "internalType": "uint256",
          "name": "_realEstateIndex",
          "type": "uint256"
        },
        {
          "internalType": "address",
          "name": "_landOwner",
          "type": "address"
        }
      ],
      "name": "buyRealEstate",
      "outputs": [],
      "stateMutability": "nonpayable",
      "type": "function"
    },
    {
      "inputs": [
        {
          "internalType": "address",
          "name": "_owner",
          "type": "address"
        },
        {
          "internalType": "uint256",
          "name": "_realEstateIndex",
          "type": "uint256"
        }
      ],
      "name": "getRealEstateDetails",
      "outputs": [
        {
          "components": [
            {
              "internalType": "enum Drearl.RealEstateType",
              "name": "realEstateType",
              "type": "uint8"
            },
            {
              "internalType": "uint256",
              "name": "numberOfPlots",
              "type": "uint256"
            },
            {
              "internalType": "uint256",
              "name": "titleNumber",
              "type": "uint256"
            },
            {
              "internalType": "string",
              "name": "state",
              "type": "string"
            },
            {
              "internalType": "string",
              "name": "lga",
              "type": "string"
            },
            {
              "internalType": "string",
              "name": "city",
              "type": "string"
            },
            {
              "internalType": "uint256",
              "name": "pricePerPlot",
              "type": "uint256"
            },
            {
              "internalType": "bool",
              "name": "isVerified",
              "type": "bool"
            },
            {
              "internalType": "bool",
              "name": "forSale",
              "type": "bool"
            },
            {
              "internalType": "string",
              "name": "imageCID",
              "type": "string"
            },
            {
              "internalType": "string",
              "name": "coFoCID",
              "type": "string"
            },
            {
              "internalType": "uint256",
              "name": "landIndex",
              "type": "uint256"
            },
            {
              "internalType": "uint256",
              "name": "numberOfRooms",
              "type": "uint256"
            },
            {
              "internalType": "uint256",
              "name": "numberOfBathrooms",
              "type": "uint256"
            },
            {
              "internalType": "uint256",
              "name": "price",
              "type": "uint256"
            }
          ],
          "internalType": "struct Drearl.RealEstateDetails",
          "name": "",
          "type": "tuple"
        }
      ],
      "stateMutability": "view",
      "type": "function"
    },
    {
      "inputs": [
        {
          "internalType": "uint256",
          "name": "",
          "type": "uint256"
        },
        {
          "internalType": "uint256",
          "name": "",
          "type": "uint256"
        }
      ],
      "name": "landHistoricalData",
      "outputs": [
        {
          "internalType": "address",
          "name": "soldFrom",
          "type": "address"
        },
        {
          "internalType": "address",
          "name": "soldTo",
          "type": "address"
        },
        {
          "internalType": "uint256",
          "name": "amount",
          "type": "uint256"
        },
        {
          "internalType": "uint256",
          "name": "numberofPlots",
          "type": "uint256"
        },
        {
          "internalType": "uint256",
          "name": "date",
          "type": "uint256"
        }
      ],
      "stateMutability": "view",
      "type": "function"
    },
    {
      "inputs": [
        {
          "internalType": "address",
          "name": "",
          "type": "address"
        },
        {
          "internalType": "uint256",
          "name": "",
          "type": "uint256"
        }
      ],
      "name": "lands",
      "outputs": [
        {
          "internalType": "uint256",
          "name": "numberOfPlots",
          "type": "uint256"
        },
        {
          "internalType": "uint256",
          "name": "titleNumber",
          "type": "uint256"
        },
        {
          "internalType": "string",
          "name": "state",
          "type": "string"
        },
        {
          "internalType": "string",
          "name": "lga",
          "type": "string"
        },
        {
          "internalType": "string",
          "name": "city",
          "type": "string"
        },
        {
          "internalType": "uint256",
          "name": "pricePerPlot",
          "type": "uint256"
        },
        {
          "internalType": "bool",
          "name": "isVerified",
          "type": "bool"
        },
        {
          "internalType": "bool",
          "name": "forSale",
          "type": "bool"
        },
        {
          "internalType": "string",
          "name": "imageCID",
          "type": "string"
        },
        {
          "internalType": "string",
          "name": "coFoCID",
          "type": "string"
        }
      ],
      "stateMutability": "view",
      "type": "function"
    },
    {
      "inputs": [],
      "name": "owner",
      "outputs": [
        {
          "internalType": "address",
          "name": "",
          "type": "address"
        }
      ],
      "stateMutability": "view",
      "type": "function"
    },
    {
      "inputs": [
        {
          "internalType": "address",
          "name": "",
          "type": "address"
        },
        {
          "internalType": "uint256",
          "name": "",
          "type": "uint256"
        }
      ],
      "name": "properties",
      "outputs": [
        {
          "internalType": "uint256",
          "name": "landIndex",
          "type": "uint256"
        },
        {
          "internalType": "uint256",
          "name": "numberOfRooms",
          "type": "uint256"
        },
        {
          "internalType": "uint256",
          "name": "numberOfBathrooms",
          "type": "uint256"
        },
        {
          "internalType": "uint256",
          "name": "price",
          "type": "uint256"
        },
        {
          "internalType": "bool",
          "name": "isVerified",
          "type": "bool"
        },
        {
          "internalType": "bool",
          "name": "forSale",
          "type": "bool"
        },
        {
          "internalType": "string",
          "name": "imageCID",
          "type": "string"
        }
      ],
      "stateMutability": "view",
      "type": "function"
    },
    {
      "inputs": [
        {
          "internalType": "address",
          "name": "",
          "type": "address"
        },
        {
          "internalType": "uint256",
          "name": "",
          "type": "uint256"
        }
      ],
      "name": "realEstates",
      "outputs": [
        {
          "internalType": "enum Drearl.RealEstateType",
          "name": "realEstateType",
          "type": "uint8"
        },
        {
          "internalType": "uint256",
          "name": "index",
          "type": "uint256"
        }
      ],
      "stateMutability": "view",
      "type": "function"
    },
    {
      "inputs": [
        {
          "internalType": "uint256",
          "name": "",
          "type": "uint256"
        }
      ],
      "name": "realEstatesForSale",
      "outputs": [
        {
          "internalType": "address",
          "name": "owner",
          "type": "address"
        },
        {
          "internalType": "uint256",
          "name": "realEstateIndex",
          "type": "uint256"
        }
      ],
      "stateMutability": "view",
      "type": "function"
    },
    {
      "inputs": [
        {
          "internalType": "uint256",
          "name": "_numberOfPlots",
          "type": "uint256"
        },
        {
          "internalType": "string",
          "name": "_state",
          "type": "string"
        },
        {
          "internalType": "string",
          "name": "_lga",
          "type": "string"
        },
        {
          "internalType": "string",
          "name": "_city",
          "type": "string"
        },
        {
          "internalType": "uint256",
          "name": "_pricePerPlot",
          "type": "uint256"
        },
        {
          "internalType": "uint256",
          "name": "_titleNumber",
          "type": "uint256"
        },
        {
          "internalType": "string",
          "name": "_imageCID",
          "type": "string"
        },
        {
          "internalType": "string",
          "name": "_coFoCID",
          "type": "string"
        }
      ],
      "name": "registerLand",
      "outputs": [],
      "stateMutability": "nonpayable",
      "type": "function"
    },
    {
      "inputs": [
        {
          "internalType": "uint256",
          "name": "_landIndex",
          "type": "uint256"
        },
        {
          "internalType": "uint256",
          "name": "_numberOfRooms",
          "type": "uint256"
        },
        {
          "internalType": "uint256",
          "name": "_numberOfBathrooms",
          "type": "uint256"
        },
        {
          "internalType": "uint256",
          "name": "_price",
          "type": "uint256"
        },
        {
          "internalType": "string",
          "name": "_imageCID",
          "type": "string"
        }
      ],
      "name": "registerProperty",
      "outputs": [],
      "stateMutability": "nonpayable",
      "type": "function"
    },
    {
      "inputs": [
        {
          "internalType": "uint256",
          "name": "",
          "type": "uint256"
        }
      ],
      "name": "registeredTitles",
      "outputs": [
        {
          "internalType": "bool",
          "name": "",
          "type": "bool"
        }
      ],
      "stateMutability": "view",
      "type": "function"
    },
    {
      "inputs": [
        {
          "internalType": "uint256",
          "name": "_realEstateIndex",
          "type": "uint256"
        }
      ],
      "name": "toggleRealEstateForSale",
      "outputs": [],
      "stateMutability": "nonpayable",
      "type": "function"
    },
    {
      "inputs": [
        {
          "internalType": "uint256",
          "name": "_realEstateIndex",
          "type": "uint256"
        }
      ],
      "name": "toggleRealEstateVerification",
      "outputs": [],
      "stateMutability": "nonpayable",
      "type": "function"
    },
    {
      "inputs": [],
      "name": "viewAllRealEstateListings",
      "outputs": [
        {
          "components": [
            {
              "internalType": "address",
              "name": "owner",
              "type": "address"
            },
            {
              "internalType": "uint256",
              "name": "realEstateIndex",
              "type": "uint256"
            }
          ],
          "internalType": "struct Drearl.RealEstateSale[]",
          "name": "",
          "type": "tuple[]"
        }
      ],
      "stateMutability": "view",
      "type": "function"
    },
    {
      "inputs": [],
      "name": "viewOwnerRealEstates",
      "outputs": [
        {
          "components": [
            {
              "internalType": "enum Drearl.RealEstateType",
              "name": "realEstateType",
              "type": "uint8"
            },
            {
              "internalType": "uint256",
              "name": "index",
              "type": "uint256"
            }
          ],
          "internalType": "struct Drearl.RealEstate[]",
          "name": "",
          "type": "tuple[]"
        }
      ],
      "stateMutability": "view",
      "type": "function"
    }
  ],
  "bytecode": "0x6080604052348015600f57600080fd5b5060405161328d38038061328d833981016040819052602c916082565b600280546001600160a01b03199081163317909155600080546001600160a01b039485169083161790556001805492909316911617905560b0565b80516001600160a01b0381168114607d57600080fd5b919050565b60008060408385031215609457600080fd5b609b836067565b915060a7602084016067565b90509250929050565b6131ce806100bf6000396000f3fe608060405234801561001057600080fd5b50600436106100f55760003560e01c806382f2888b11610097578063c053c10311610066578063c053c10314610299578063c0c61c78146102ae578063d6fa1e6c146102c1578063fcf1972e146102e157600080fd5b806382f2888b146102165780638da5cb5b14610229578063983ec42214610254578063a3dcb8fc1461026757600080fd5b8063644d370a116100d3578063644d370a146101845780636451b5c9146101b7578063756efcf7146101cc57806377fa5c33146101f557600080fd5b806314977124146100fa57806314bfcdd71461011857806329dc08d71461013e575b600080fd5b6101026102f4565b60405161010f9190612983565b60405180910390f35b61012b6101263660046129f7565b610369565b60405161010f9796959493929190612a67565b61015161014c366004612aaf565b610456565b604080516001600160a01b039687168152959094166020860152928401919091526060830152608082015260a00161010f565b6101a7610192366004612ad1565b60036020526000908152604090205460ff1681565b604051901515815260200161010f565b6101ca6101c5366004612ad1565b6104b1565b005b6101df6101da3660046129f7565b610739565b60405161010f9a99989796959493929190612aea565b6102086102033660046129f7565b610a5e565b60405161010f929190612bba565b6101ca610224366004612bd5565b610a9e565b60025461023c906001600160a01b031681565b6040516001600160a01b03909116815260200161010f565b6101ca610262366004612ca6565b6118ca565b61027a610275366004612ad1565b611b1e565b604080516001600160a01b03909316835260208301919091520161010f565b6102a1611b56565b60405161010f9190612d0a565b6101ca6102bc366004612d56565b611bed565b6102d46102cf3660046129f7565b61203f565b60405161010f9190612e5f565b6101ca6102ef366004612ad1565b6126db565b60606007805480602002602001604051908101604052809291908181526020016000905b82821015610360576000848152602090819020604080518082019091526002850290910180546001600160a01b03168252600190810154828401529083529092019101610318565b50505050905090565b6006602052816000526040600020818154811061038557600080fd5b60009182526020909120600690910201805460018201546002830154600384015460048501546005860180549598509396509194909360ff808416946101009094041692906103d390612f89565b80601f01602080910402602001604051908101604052809291908181526020018280546103ff90612f89565b801561044c5780601f106104215761010080835404028352916020019161044c565b820191906000526020600020905b81548152906001019060200180831161042f57829003601f168201915b5050505050905087565b6008602052816000526040600020818154811061047257600080fd5b6000918252602090912060059091020180546001820154600283015460038401546004909401546001600160a01b039384169650929091169350919085565b3360009081526004602052604081208054839081106104d2576104d2612fc3565b6000918252602082206002909102019150815460ff1660018111156104f9576104f9612b82565b0361060e5733600090815260056020526040812060018301548154811061052257610522612fc3565b906000526020600020906009020190508060060160019054906101000a900460ff16156105635761055333846127dd565b600601805461ff00191690555050565b60408051808201909152338152602081018481526007805460018101825560009190915291517fa66cc928b5edb82af9bd49922954155ab7b0942694bea4ce44661d9a8736c688600290930292830180546001600160a01b0319166001600160a01b03909216919091179055517fa66cc928b5edb82af9bd49922954155ab7b0942694bea4ce44661d9a8736c6899091015560068101805461010061ff00199091161790555b505050565b6001815460ff16600181111561062657610626612b82565b036107355733600090815260066020526040812060018301548154811061064f5761064f612fc3565b906000526020600020906006020190508060040160019054906101000a900460ff16156106905761068033846127dd565b600401805461ff00191690555050565b604080518082019091523381526020810184815260078054600181018255600091909152915160029092027fa66cc928b5edb82af9bd49922954155ab7b0942694bea4ce44661d9a8736c688810180546001600160a01b039094166001600160a01b031990941693909317909255517fa66cc928b5edb82af9bd49922954155ab7b0942694bea4ce44661d9a8736c68990910155600401805461ff0019166101001790555b5050565b6005602052816000526040600020818154811061075557600080fd5b90600052602060002090600902016000915091505080600001549080600101549080600201805461078590612f89565b80601f01602080910402602001604051908101604052809291908181526020018280546107b190612f89565b80156107fe5780601f106107d3576101008083540402835291602001916107fe565b820191906000526020600020905b8154815290600101906020018083116107e157829003601f168201915b50505050509080600301805461081390612f89565b80601f016020809104026020016040519081016040528092919081815260200182805461083f90612f89565b801561088c5780601f106108615761010080835404028352916020019161088c565b820191906000526020600020905b81548152906001019060200180831161086f57829003601f168201915b5050505050908060040180546108a190612f89565b80601f01602080910402602001604051908101604052809291908181526020018280546108cd90612f89565b801561091a5780601f106108ef5761010080835404028352916020019161091a565b820191906000526020600020905b8154815290600101906020018083116108fd57829003601f168201915b505050600584015460068501546007860180549596929560ff808416965061010090930490921693509061094d90612f89565b80601f016020809104026020016040519081016040528092919081815260200182805461097990612f89565b80156109c65780601f1061099b576101008083540402835291602001916109c6565b820191906000526020600020905b8154815290600101906020018083116109a957829003601f168201915b5050505050908060080180546109db90612f89565b80601f0160208091040260200160405190810160405280929190818152602001828054610a0790612f89565b8015610a545780601f10610a2957610100808354040283529160200191610a54565b820191906000526020600020905b815481529060010190602001808311610a3757829003601f168201915b505050505090508a565b60046020528160005260406000208181548110610a7a57600080fd5b60009182526020909120600290910201805460019091015460ff9091169250905082565b6001600160a01b0381166000908152600460205260408120805484908110610ac857610ac8612fc3565b6000918252602082206002909102019150815460ff166001811115610aef57610aef612b82565b03611336576001600160a01b0382166000908152600560205260408120600183015481548110610b2157610b21612fc3565b60009182526020909120600990910201600681015490915060ff16610b5957604051632cb5864d60e21b815260040160405180910390fd5b80546005820154600091610b6c91612fef565b6000546040516370a0823160e01b815233600482015291925082916001600160a01b03909116906370a0823190602401602060405180830381865afa158015610bb9573d6000803e3d6000fd5b505050506040513d601f19601f82011682018060405250810190610bdd9190613006565b1015610bfc57604051635a225ab360e01b815260040160405180910390fd5b600054604051636eb1769f60e11b815233600482015230602482015282916001600160a01b03169063dd62ed3e90604401602060405180830381865afa158015610c4a573d6000803e3d6000fd5b505050506040513d601f19601f82011682018060405250810190610c6e9190613006565b1015610c8d576040516332ad39fb60e01b815260040160405180910390fd5b60006040518061014001604052808460000154815260200184600101548152602001846002018054610cbe90612f89565b80601f0160208091040260200160405190810160405280929190818152602001828054610cea90612f89565b8015610d375780601f10610d0c57610100808354040283529160200191610d37565b820191906000526020600020905b815481529060010190602001808311610d1a57829003601f168201915b50505050508152602001846003018054610d5090612f89565b80601f0160208091040260200160405190810160405280929190818152602001828054610d7c90612f89565b8015610dc95780601f10610d9e57610100808354040283529160200191610dc9565b820191906000526020600020905b815481529060010190602001808311610dac57829003601f168201915b50505050508152602001846004018054610de290612f89565b80601f0160208091040260200160405190810160405280929190818152602001828054610e0e90612f89565b8015610e5b5780601f10610e3057610100808354040283529160200191610e5b565b820191906000526020600020905b815481529060010190602001808311610e3e57829003601f168201915b5050505050815260200184600501548152602001600115158152602001600015158152602001846007018054610e9090612f89565b80601f0160208091040260200160405190810160405280929190818152602001828054610ebc90612f89565b8015610f095780601f10610ede57610100808354040283529160200191610f09565b820191906000526020600020905b815481529060010190602001808311610eec57829003601f168201915b50505050508152602001846008018054610f2290612f89565b80601f0160208091040260200160405190810160405280929190818152602001828054610f4e90612f89565b8015610f9b5780601f10610f7057610100808354040283529160200191610f9b565b820191906000526020600020905b815481529060010190602001808311610f7e57829003601f168201915b505050919092525050336000908152600560209081526040808320805460018181018355918552938390208551600990950201938455918401519183019190915582015191925082916002820190610ff3908261306d565b5060608201516003820190611008908261306d565b506080820151600482019061101d908261306d565b5060a0820151600582015560c082015160068201805460e085015161ffff1990911692151561ff0019169290921761010092151583021790558201516007820190611068908261306d565b50610120820151600882019061107e908261306d565b50503360009081526005602052604081205490915061109f9060019061312c565b3360009081526004602090815260408083208151808301909252838252818301859052805460018082018355918552929093208151600290930201805494955090939092839160ff19169083818111156110fb576110fb612b82565b0217905550602091909101516001918201558054604051637921219560e11b81526001600160a01b03898116600483015233602483015260448201849052606482019390935260a06084820152600060a482015291169063f242432a9060c401600060405180830381600087803b15801561117557600080fd5b505af1158015611189573d6000803e3d6000fd5b5050505061119786886127dd565b6001600160a01b03861660009081526005602052604090206001860154815481106111c4576111c4612fc3565b60009182526020822060099091020181815560018101829055906111eb600283018261292d565b6111f960038301600061292d565b61120760048301600061292d565b60006005830181905560068301805461ffff1916905561122b90600784019061292d565b61123960088301600061292d565b50506001600160a01b038616600090815260046020526040902080548890811061126557611265612fc3565b60009182526020822060029190910201805460ff19168155600101819055546040516323b872dd60e01b81523360048201526001600160a01b03888116602483015260448201869052909116906323b872dd90606401600060405180830381600087803b1580156112d557600080fd5b505af11580156112e9573d6000803e3d6000fd5b50506040518581523392506001600160a01b03891691507f95d4b69de758974d8962534750a9be6a65fd20520c7c32d18e329f96e3a924f49060200160405180910390a350505050505050565b6001815460ff16600181111561134e5761134e612b82565b03610609576001600160a01b038216600090815260066020526040812060018301548154811061138057611380612fc3565b60009182526020909120600690910201600481015490915060ff166113b85760405163b91d1d2d60e01b815260040160405180910390fd5b60038101546000546040516370a0823160e01b815233600482015282916001600160a01b0316906370a0823190602401602060405180830381865afa158015611405573d6000803e3d6000fd5b505050506040513d601f19601f820116820180604052508101906114299190613006565b101561144857604051635a225ab360e01b815260040160405180910390fd5b600054604051636eb1769f60e11b815233600482015230602482015282916001600160a01b03169063dd62ed3e90604401602060405180830381865afa158015611496573d6000803e3d6000fd5b505050506040513d601f19601f820116820180604052508101906114ba9190613006565b10156114d9576040516332ad39fb60e01b815260040160405180910390fd5b60006040518060e001604052808460000154815260200184600101548152602001846002015481526020018460030154815260200160011515815260200160001515815260200184600501805461152f90612f89565b80601f016020809104026020016040519081016040528092919081815260200182805461155b90612f89565b80156115a85780601f1061157d576101008083540402835291602001916115a8565b820191906000526020600020905b81548152906001019060200180831161158b57829003601f168201915b505050919092525050336000908152600660208181526040808420805460018181018355918652948390208651959094029093019384559084015191830191909155820151600282015560608201516003820155608082015160048201805460a085015115156101000261ff00199315159390931661ffff199091161791909117905560c082015191925082916005820190611644908261306d565b5050336000908152600660205260408120549091506116659060019061312c565b336000908152600460209081526040808320815180830190925260018083528284018690528154808201835591855292909320815160029094020180549495509093909291839160ff19169083818111156116c2576116c2612b82565b0217905550602091909101516001918201558054604051637921219560e11b81526001600160a01b03898116600483015233602483015260448201849052606482019390935260a06084820152600060a482015291169063f242432a9060c401600060405180830381600087803b15801561173c57600080fd5b505af1158015611750573d6000803e3d6000fd5b5050505061175e86886127dd565b6001600160a01b038616600090815260066020526040902060018601548154811061178b5761178b612fc3565b60009182526020822060069091020181815560018101829055600281018290556003810182905560048101805461ffff19169055906117cd600583018261292d565b50506001600160a01b03861660009081526004602052604090208054889081106117f9576117f9612fc3565b60009182526020822060029190910201805460ff19168155600101819055546040516323b872dd60e01b81523360048201526001600160a01b03888116602483015260448201869052909116906323b872dd90606401600060405180830381600087803b15801561186957600080fd5b505af115801561187d573d6000803e3d6000fd5b50506040518581523392506001600160a01b03891691507f7898e8111af6ef8aad566e3f0544a32dc3476bbcf760201950acfec431f668d79060200160405180910390a350505050505050565b33600090815260056020526040902054851061192d5760405162461bcd60e51b815260206004820152601260248201527f496e76616c6964206c616e6420696e646578000000000000000000000000000060448201526064015b60405180910390fd5b6040805160e081018252868152602080820187815282840187815260608401878152600160808601818152600060a0880181815260c089018b81523383526006808a529a83208054808701825590845298909220895198909a029099019687559451918601919091559151600285015551600384015551600483018054955115156101000261ff00199215159290921661ffff19909616959095171790935591519091829160058201906119e1908261306d565b505033600090815260066020526040812054909150611a029060019061312c565b336000908152600460209081526040808320815180830190925260018083528284018690528154808201835591855292909320815160029094020180549495509093909291839160ff1916908381811115611a5f57611a5f612b82565b021790555060209190910151600191820155805460405163731133e960e01b815233600482015260248101839052604481019290925260806064830152600060848301526001600160a01b03169063731133e99060a401600060405180830381600087803b158015611ad057600080fd5b505af1158015611ae4573d6000803e3d6000fd5b50506040518392503391507f061780c73ddb20753c4ac9776b2c6e272e2a3edcf51cf578d6cc34e15037200990600090a350505050505050565b60078181548110611b2e57600080fd5b6000918252602090912060029091020180546001909101546001600160a01b03909116915082565b336000908152600460209081526040808320805482518185028101850190935280835260609492939192909184015b828210156103605760008481526020902060408051808201909152600284029091018054829060ff166001811115611bbf57611bbf612b82565b6001811115611bd057611bd0612b82565b815260200160018201548152505081526020019060010190611b85565b87600003611c0e5760405163f6dd8ba360e01b815260040160405180910390fd5b82600003611c2f5760405163d90b981760e01b815260040160405180910390fd5b86511580611c3c57508551155b80611c4657508451155b15611c645760405163d5382b0d60e01b815260040160405180910390fd5b60008381526003602052604090205460ff1615611c9457604051633553278d60e11b815260040160405180910390fd5b6000838152600360209081526040808320805460ff191660019081179091558151610140810183528c81528084018881528184018d8152606083018d9052608083018c905260a083018b905260c0830184905260e08301879052610100830189905261012083018890523387526005865293862080548085018255908752949095208151600990950201938455935190830155518291906002820190611d3a908261306d565b5060608201516003820190611d4f908261306d565b5060808201516004820190611d64908261306d565b5060a0820151600582015560c082015160068201805460e085015161ffff1990911692151561ff0019169290921761010092151583021790558201516007820190611daf908261306d565b506101208201516008820190611dc5908261306d565b505033600090815260056020526040812054909150611de69060019061312c565b3360009081526004602090815260408083208151808301909252838252818301859052805460018082018355918552929093208151600290930201805494955090939092839160ff1916908381811115611e4257611e42612b82565b021790555060208201518160010155505060006040518060a0016040528060006001600160a01b03168152602001336001600160a01b03168152602001600081526020018c81526020014281525090506008600083815260200190815260200160002081908060018154018082558091505060019003906000526020600020906005020160009091909190915060008201518160000160006101000a8154816001600160a01b0302191690836001600160a01b0316021790555060208201518160010160006101000a8154816001600160a01b0302191690836001600160a01b031602179055506040820151816002015560608201518160030155608082015181600401555050600160009054906101000a90046001600160a01b03166001600160a01b031663731133e9336001806040518463ffffffff1660e01b8152600401611fba939291906001600160a01b039390931683526020830191909152604082015260806060820181905260009082015260a00190565b600060405180830381600087803b158015611fd457600080fd5b505af1158015611fe8573d6000803e3d6000fd5b5050505081336001600160a01b03167f38d4ec46bb2fcfb60d1c0bbd5a016f391a7650fd0429d97c24e9d101bcc7bf2c8c8c8c60405161202a9392919061313f565b60405180910390a35050505050505050505050565b6120bd604080516101e0810190915280600081526020016000815260200160008152602001606081526020016060815260200160608152602001600081526020016000151581526020016000151581526020016060815260200160608152602001600081526020016000815260200160008152602001600081525090565b6001600160a01b03831660009081526004602052604081208054849081106120e7576120e7612fc3565b6000918252602082206002909102019150815460ff16600181111561210e5761210e612b82565b036124c2576001600160a01b038416600090815260056020526040812060018301548154811061214057612140612fc3565b90600052602060002090600902019050604051806101e001604052808360000160009054906101000a900460ff16600181111561217f5761217f612b82565b815260200182600001548152602001826001015481526020018260020180546121a790612f89565b80601f01602080910402602001604051908101604052809291908181526020018280546121d390612f89565b80156122205780601f106121f557610100808354040283529160200191612220565b820191906000526020600020905b81548152906001019060200180831161220357829003601f168201915b5050505050815260200182600301805461223990612f89565b80601f016020809104026020016040519081016040528092919081815260200182805461226590612f89565b80156122b25780601f10612287576101008083540402835291602001916122b2565b820191906000526020600020905b81548152906001019060200180831161229557829003601f168201915b505050505081526020018260040180546122cb90612f89565b80601f01602080910402602001604051908101604052809291908181526020018280546122f790612f89565b80156123445780601f1061231957610100808354040283529160200191612344565b820191906000526020600020905b81548152906001019060200180831161232757829003601f168201915b505050918352505060058301546020820152600683015460ff80821615156040840152610100909104161515606082015260078301805460809092019161238a90612f89565b80601f01602080910402602001604051908101604052809291908181526020018280546123b690612f89565b80156124035780601f106123d857610100808354040283529160200191612403565b820191906000526020600020905b8154815290600101906020018083116123e657829003601f168201915b5050505050815260200182600801805461241c90612f89565b80601f016020809104026020016040519081016040528092919081815260200182805461244890612f89565b80156124955780601f1061246a57610100808354040283529160200191612495565b820191906000526020600020905b81548152906001019060200180831161247857829003601f168201915b505050505081526020016000815260200160008152602001600081526020016000815250925050506126d5565b6001815460ff1660018111156124da576124da612b82565b0361268d576001600160a01b038416600090815260066020526040812060018301548154811061250c5761250c612fc3565b90600052602060002090600602019050604051806101e001604052808360000160009054906101000a900460ff16600181111561254b5761254b612b82565b81526000602080830182905260408084018390528051808301825283815260608501528051808301825283815260808501528051918201905281815260a083015260c0820152600483015460ff808216151560e08401526101009182900416151590820152600583018054610120909201916125c690612f89565b80601f01602080910402602001604051908101604052809291908181526020018280546125f290612f89565b801561263f5780601f106126145761010080835404028352916020019161263f565b820191906000526020600020905b81548152906001019060200180831161262257829003601f168201915b505050505081526020016040518060200160405280600081525081526020018260000154815260200182600101548152602001826002015481526020018260030154815250925050506126d5565b60405162461bcd60e51b815260206004820152601560248201527f53686f756c64206e6f74206265207265616368656400000000000000000000006044820152606401611924565b92915050565b3360009081526004602052604081208054839081106126fc576126fc612fc3565b6000918252602082206002909102019150815460ff16600181111561272357612723612b82565b036127745733600090815260056020526040812060018301548154811061274c5761274c612fc3565b60009182526020909120600660099092020101805460ff19811660ff90911615179055505050565b6001815460ff16600181111561278c5761278c612b82565b03610735573360009081526006602052604081206001830154815481106127b5576127b5612fc3565b60009182526020909120600460069092020101805460ff19811660ff90911615179055505050565b60005b60075481101561060957826001600160a01b03166007828154811061280757612807612fc3565b60009182526020909120600290910201546001600160a01b03161480156128515750816007828154811061283d5761283d612fc3565b906000526020600020906002020160010154145b15612925576007546128659060019061312c565b8110156128e6576007805461287c9060019061312c565b8154811061288c5761288c612fc3565b9060005260206000209060020201600782815481106128ad576128ad612fc3565b60009182526020909120825460029092020180546001600160a01b0319166001600160a01b039092169190911781556001918201549101555b60078054806128f7576128f7613182565b60008281526020812060026000199093019283020180546001600160a01b0319168155600101559055505050565b6001016127e0565b50805461293990612f89565b6000825580601f10612949575050565b601f016020900490600052602060002090810190612967919061296a565b50565b5b8082111561297f576000815560010161296b565b5090565b602080825282518282018190526000918401906040840190835b818110156129d057835180516001600160a01b03168452602090810151818501529093019260409092019160010161299d565b509095945050505050565b80356001600160a01b03811681146129f257600080fd5b919050565b60008060408385031215612a0a57600080fd5b612a13836129db565b946020939093013593505050565b6000815180845260005b81811015612a4757602081850181015186830182015201612a2b565b506000602082860101526020601f19601f83011685010191505092915050565b878152866020820152856040820152846060820152831515608082015282151560a082015260e060c08201526000612aa260e0830184612a21565b9998505050505050505050565b60008060408385031215612ac257600080fd5b50508035926020909101359150565b600060208284031215612ae357600080fd5b5035919050565b8a815289602082015261014060408201526000612b0b61014083018b612a21565b8281036060840152612b1d818b612a21565b90508281036080840152612b31818a612a21565b90508760a084015286151560c084015285151560e0840152828103610100840152612b5c8186612a21565b9050828103610120840152612b718185612a21565b9d9c50505050505050505050505050565b634e487b7160e01b600052602160045260246000fd5b60028110612bb657634e487b7160e01b600052602160045260246000fd5b9052565b60408101612bc88285612b98565b8260208301529392505050565b60008060408385031215612be857600080fd5b82359150612bf8602084016129db565b90509250929050565b634e487b7160e01b600052604160045260246000fd5b600082601f830112612c2857600080fd5b813567ffffffffffffffff811115612c4257612c42612c01565b604051601f8201601f19908116603f0116810167ffffffffffffffff81118282101715612c7157612c71612c01565b604052818152838201602001851015612c8957600080fd5b816020850160208301376000918101602001919091529392505050565b600080600080600060a08688031215612cbe57600080fd5b85359450602086013593506040860135925060608601359150608086013567ffffffffffffffff811115612cf157600080fd5b612cfd88828901612c17565b9150509295509295909350565b602080825282518282018190526000918401906040840190835b818110156129d0578351612d39848251612b98565b602090810151848201529390930192604090920191600101612d24565b600080600080600080600080610100898b031215612d7357600080fd5b88359750602089013567ffffffffffffffff811115612d9157600080fd5b612d9d8b828c01612c17565b975050604089013567ffffffffffffffff811115612dba57600080fd5b612dc68b828c01612c17565b965050606089013567ffffffffffffffff811115612de357600080fd5b612def8b828c01612c17565b9550506080890135935060a0890135925060c089013567ffffffffffffffff811115612e1a57600080fd5b612e268b828c01612c17565b92505060e089013567ffffffffffffffff811115612e4357600080fd5b612e4f8b828c01612c17565b9150509295985092959890939650565b60208152612e71602082018351612b98565b6020820151604082015260408201516060820152600060608301516101e06080840152612ea2610200840182612a21565b90506080840151601f198483030160a0850152612ebf8282612a21565b91505060a0840151601f198483030160c0850152612edd8282612a21565b91505060c084015160e084015260e0840151612efe61010085018215159052565b5061010084015180151561012085015250610120840151838203601f1901610140850152612f2c8282612a21565b915050610140840151601f1984830301610160850152612f4c8282612a21565b9150506101608401516101808401526101808401516101a08401526101a08401516101c08401526101c08401516101e08401528091505092915050565b600181811c90821680612f9d57607f821691505b602082108103612fbd57634e487b7160e01b600052602260045260246000fd5b50919050565b634e487b7160e01b600052603260045260246000fd5b634e487b7160e01b600052601160045260246000fd5b80820281158282048414176126d5576126d5612fd9565b60006020828403121561301857600080fd5b5051919050565b601f82111561060957806000526020600020601f840160051c810160208510156130465750805b601f840160051c820191505b818110156130665760008155600101613052565b5050505050565b815167ffffffffffffffff81111561308757613087612c01565b61309b816130958454612f89565b8461301f565b6020601f8211600181146130cf57600083156130b75750848201515b600019600385901b1c1916600184901b178455613066565b600084815260208120601f198516915b828110156130ff57878501518255602094850194600190920191016130df565b508482101561311d5786840151600019600387901b60f8161c191681555b50505050600190811b01905550565b818103818111156126d5576126d5612fd9565b6060815260006131526060830186612a21565b82810360208401526131648186612a21565b905082810360408401526131788185612a21565b9695505050505050565b634e487b7160e01b600052603160045260246000fdfea2646970667358221220f0897f0274ec48679d9e8ea142e8647d0afe5a7b3ed07977d51f9cc56a482a8364736f6c634300081b0033",
  "linkReferences": {},
  "deployedLinkReferences": {}
}